{
  "_format": "hh-sol-artifact-1",
  "contractName": "MyEpicNFT",
  "sourceName": "contracts/MyEpicNFT.sol",
  "abi": [
    {
      "inputs": [],
      "stateMutability": "nonpayable",
      "type": "constructor"
    },
    {
      "anonymous": false,
      "inputs": [
        {
          "indexed": true,
          "internalType": "address",
          "name": "owner",
          "type": "address"
        },
        {
          "indexed": true,
          "internalType": "address",
          "name": "approved",
          "type": "address"
        },
        {
          "indexed": true,
          "internalType": "uint256",
          "name": "tokenId",
          "type": "uint256"
        }
      ],
      "name": "Approval",
      "type": "event"
    },
    {
      "anonymous": false,
      "inputs": [
        {
          "indexed": true,
          "internalType": "address",
          "name": "owner",
          "type": "address"
        },
        {
          "indexed": true,
          "internalType": "address",
          "name": "operator",
          "type": "address"
        },
        {
          "indexed": false,
          "internalType": "bool",
          "name": "approved",
          "type": "bool"
        }
      ],
      "name": "ApprovalForAll",
      "type": "event"
    },
    {
      "anonymous": false,
      "inputs": [
        {
          "indexed": false,
          "internalType": "address",
          "name": "sender",
          "type": "address"
        },
        {
          "indexed": false,
          "internalType": "uint256",
          "name": "tokenId",
          "type": "uint256"
        }
      ],
      "name": "NewEpicNFTMinted",
      "type": "event"
    },
    {
      "anonymous": false,
      "inputs": [
        {
          "indexed": true,
          "internalType": "address",
          "name": "from",
          "type": "address"
        },
        {
          "indexed": true,
          "internalType": "address",
          "name": "to",
          "type": "address"
        },
        {
          "indexed": true,
          "internalType": "uint256",
          "name": "tokenId",
          "type": "uint256"
        }
      ],
      "name": "Transfer",
      "type": "event"
    },
    {
      "inputs": [
        {
          "internalType": "address",
          "name": "to",
          "type": "address"
        },
        {
          "internalType": "uint256",
          "name": "tokenId",
          "type": "uint256"
        }
      ],
      "name": "approve",
      "outputs": [],
      "stateMutability": "nonpayable",
      "type": "function"
    },
    {
      "inputs": [
        {
          "internalType": "address",
          "name": "owner",
          "type": "address"
        }
      ],
      "name": "balanceOf",
      "outputs": [
        {
          "internalType": "uint256",
          "name": "",
          "type": "uint256"
        }
      ],
      "stateMutability": "view",
      "type": "function"
    },
    {
      "inputs": [
        {
          "internalType": "uint256",
          "name": "tokenId",
          "type": "uint256"
        }
      ],
      "name": "getApproved",
      "outputs": [
        {
          "internalType": "address",
          "name": "",
          "type": "address"
        }
      ],
      "stateMutability": "view",
      "type": "function"
    },
    {
      "inputs": [],
      "name": "getTotalNFTsMintedSoFar",
      "outputs": [
        {
          "internalType": "uint256",
          "name": "",
          "type": "uint256"
        }
      ],
      "stateMutability": "view",
      "type": "function"
    },
    {
      "inputs": [
        {
          "internalType": "address",
          "name": "owner",
          "type": "address"
        },
        {
          "internalType": "address",
          "name": "operator",
          "type": "address"
        }
      ],
      "name": "isApprovedForAll",
      "outputs": [
        {
          "internalType": "bool",
          "name": "",
          "type": "bool"
        }
      ],
      "stateMutability": "view",
      "type": "function"
    },
    {
      "inputs": [],
      "name": "makeAnEpicNFT",
      "outputs": [],
      "stateMutability": "nonpayable",
      "type": "function"
    },
    {
      "inputs": [],
      "name": "name",
      "outputs": [
        {
          "internalType": "string",
          "name": "",
          "type": "string"
        }
      ],
      "stateMutability": "view",
      "type": "function"
    },
    {
      "inputs": [
        {
          "internalType": "uint256",
          "name": "tokenId",
          "type": "uint256"
        }
      ],
      "name": "ownerOf",
      "outputs": [
        {
          "internalType": "address",
          "name": "",
          "type": "address"
        }
      ],
      "stateMutability": "view",
      "type": "function"
    },
    {
      "inputs": [
        {
          "internalType": "uint256",
          "name": "tokenId",
          "type": "uint256"
        }
      ],
      "name": "pickRandomFirstWord",
      "outputs": [
        {
          "internalType": "string",
          "name": "",
          "type": "string"
        }
      ],
      "stateMutability": "view",
      "type": "function"
    },
    {
      "inputs": [
        {
          "internalType": "uint256",
          "name": "tokenId",
          "type": "uint256"
        }
      ],
      "name": "pickRandomSecondWord",
      "outputs": [
        {
          "internalType": "string",
          "name": "",
          "type": "string"
        }
      ],
      "stateMutability": "view",
      "type": "function"
    },
    {
      "inputs": [
        {
          "internalType": "uint256",
          "name": "tokenId",
          "type": "uint256"
        }
      ],
      "name": "pickRandomThirdWord",
      "outputs": [
        {
          "internalType": "string",
          "name": "",
          "type": "string"
        }
      ],
      "stateMutability": "view",
      "type": "function"
    },
    {
      "inputs": [
        {
          "internalType": "address",
          "name": "from",
          "type": "address"
        },
        {
          "internalType": "address",
          "name": "to",
          "type": "address"
        },
        {
          "internalType": "uint256",
          "name": "tokenId",
          "type": "uint256"
        }
      ],
      "name": "safeTransferFrom",
      "outputs": [],
      "stateMutability": "nonpayable",
      "type": "function"
    },
    {
      "inputs": [
        {
          "internalType": "address",
          "name": "from",
          "type": "address"
        },
        {
          "internalType": "address",
          "name": "to",
          "type": "address"
        },
        {
          "internalType": "uint256",
          "name": "tokenId",
          "type": "uint256"
        },
        {
          "internalType": "bytes",
          "name": "_data",
          "type": "bytes"
        }
      ],
      "name": "safeTransferFrom",
      "outputs": [],
      "stateMutability": "nonpayable",
      "type": "function"
    },
    {
      "inputs": [
        {
          "internalType": "address",
          "name": "operator",
          "type": "address"
        },
        {
          "internalType": "bool",
          "name": "approved",
          "type": "bool"
        }
      ],
      "name": "setApprovalForAll",
      "outputs": [],
      "stateMutability": "nonpayable",
      "type": "function"
    },
    {
      "inputs": [
        {
          "internalType": "bytes4",
          "name": "interfaceId",
          "type": "bytes4"
        }
      ],
      "name": "supportsInterface",
      "outputs": [
        {
          "internalType": "bool",
          "name": "",
          "type": "bool"
        }
      ],
      "stateMutability": "view",
      "type": "function"
    },
    {
      "inputs": [],
      "name": "symbol",
      "outputs": [
        {
          "internalType": "string",
          "name": "",
          "type": "string"
        }
      ],
      "stateMutability": "view",
      "type": "function"
    },
    {
      "inputs": [
        {
          "internalType": "uint256",
          "name": "tokenId",
          "type": "uint256"
        }
      ],
      "name": "tokenURI",
      "outputs": [
        {
          "internalType": "string",
          "name": "",
          "type": "string"
        }
      ],
      "stateMutability": "view",
      "type": "function"
    },
    {
      "inputs": [
        {
          "internalType": "address",
          "name": "from",
          "type": "address"
        },
        {
          "internalType": "address",
          "name": "to",
          "type": "address"
        },
        {
          "internalType": "uint256",
          "name": "tokenId",
          "type": "uint256"
        }
      ],
      "name": "transferFrom",
      "outputs": [],
      "stateMutability": "nonpayable",
      "type": "function"
    }
  ],
  "bytecode": "0x608060405260405180610160016040528061012f81526020016200479a61012f91396008908051906020019062000038929190620009f6565b506040518061014001604052806040518060400160405280600581526020017f4372617a7900000000000000000000000000000000000000000000000000000081525081526020016040518060400160405280600481526020017f57696c640000000000000000000000000000000000000000000000000000000081525081526020016040518060400160405280600681526020017f53706f6f6b79000000000000000000000000000000000000000000000000000081525081526020016040518060400160405280600881526020017f5465727269626c6500000000000000000000000000000000000000000000000081525081526020016040518060400160405280600981526020017f46616e746173746963000000000000000000000000000000000000000000000081525081526020016040518060400160405280600481526020017f457069630000000000000000000000000000000000000000000000000000000081525081526020016040518060400160405280600981526020017f576f6e64657266756c000000000000000000000000000000000000000000000081525081526020016040518060400160405280600881526020017f486f727269626c6500000000000000000000000000000000000000000000000081525081526020016040518060400160405280600481526020017f526963680000000000000000000000000000000000000000000000000000000081525081526020016040518060400160405280600981526020017f52656c6967696f75730000000000000000000000000000000000000000000000815250815250600990600a620002a392919062000a87565b506040518061018001604052806040518060400160405280600981526020017f43686f636f6c617465000000000000000000000000000000000000000000000081525081526020016040518060400160405280600781526020017f56616e696c6c610000000000000000000000000000000000000000000000000081525081526020016040518060400160405280600781526020017f436172616d656c0000000000000000000000000000000000000000000000000081525081526020016040518060400160405280600881526020017f526173626572727900000000000000000000000000000000000000000000000081525081526020016040518060400160405280600981526020017f426c75656265727279000000000000000000000000000000000000000000000081525081526020016040518060400160405280600a81526020017f537472617762657272790000000000000000000000000000000000000000000081525081526020016040518060400160405280600681526020017f4f72616e6765000000000000000000000000000000000000000000000000000081525081526020016040518060400160405280600581526020017f437572727900000000000000000000000000000000000000000000000000000081525081526020016040518060400160405280600581526020017f53616c616400000000000000000000000000000000000000000000000000000081525081526020016040518060400160405280600581526020017f52616d656e00000000000000000000000000000000000000000000000000000081525081526020016040518060400160405280600381526020017f50686f000000000000000000000000000000000000000000000000000000000081525081526020016040518060400160405280600881526020017f53616e6477696368000000000000000000000000000000000000000000000000815250815250600a90600c6200058492919062000aee565b506040518061016001604052806040518060400160405280600481526020017f42696b650000000000000000000000000000000000000000000000000000000081525081526020016040518060400160405280600381526020017f436172000000000000000000000000000000000000000000000000000000000081525081526020016040518060400160405280600981526020017f4d6f746f7262696b65000000000000000000000000000000000000000000000081525081526020016040518060400160405280600a81526020017f48656c69636f707465720000000000000000000000000000000000000000000081525081526020016040518060400160405280600581526020017f506c616e6500000000000000000000000000000000000000000000000000000081525081526020016040518060400160405280600881526020017f556e696379636c6500000000000000000000000000000000000000000000000081525081526020016040518060400160405280600481526020017f426f61740000000000000000000000000000000000000000000000000000000081525081526020016040518060400160405280600681526020017f4a6574736b69000000000000000000000000000000000000000000000000000081525081526020016040518060400160405280600981526020017f506564616c43617274000000000000000000000000000000000000000000000081525081526020016040518060400160405280600581526020017f426c696d7000000000000000000000000000000000000000000000000000000081525081526020016040518060400160405280600681526020017f42616c6f6f6e0000000000000000000000000000000000000000000000000000815250815250600b90600b6200082a92919062000b55565b503480156200083857600080fd5b506040518060400160405280600981526020017f5371756172654e465400000000000000000000000000000000000000000000008152506040518060400160405280600681526020017f53515541524500000000000000000000000000000000000000000000000000008152508160009080519060200190620008bd929190620009f6565b508060019080519060200190620008d6929190620009f6565b505050620009246040518060400160405280601e81526020017f54686973206973206d79204e465420636f6e74726163742e20576f61682100008152506200092a60201b6200115a1760201c565b62000d76565b620009ca8160405160240162000941919062000c8a565b6040516020818303038152906040527f41304fac000000000000000000000000000000000000000000000000000000007bffffffffffffffffffffffffffffffffffffffffffffffffffffffff19166020820180517bffffffffffffffffffffffffffffffffffffffffffffffffffffffff8381831617835250505050620009cd60201b60201c565b50565b60008151905060006a636f6e736f6c652e6c6f679050602083016000808483855afa5050505050565b82805462000a049062000d00565b90600052602060002090601f01602090048101928262000a28576000855562000a74565b82601f1062000a4357805160ff191683800117855562000a74565b8280016001018555821562000a74579182015b8281111562000a7357825182559160200191906001019062000a56565b5b50905062000a83919062000bbc565b5090565b82805482825590600052602060002090810192821562000adb579160200282015b8281111562000ada57825182908051906020019062000ac9929190620009f6565b509160200191906001019062000aa8565b5b50905062000aea919062000bdb565b5090565b82805482825590600052602060002090810192821562000b42579160200282015b8281111562000b4157825182908051906020019062000b30929190620009f6565b509160200191906001019062000b0f565b5b50905062000b51919062000bdb565b5090565b82805482825590600052602060002090810192821562000ba9579160200282015b8281111562000ba857825182908051906020019062000b97929190620009f6565b509160200191906001019062000b76565b5b50905062000bb8919062000bdb565b5090565b5b8082111562000bd757600081600090555060010162000bbd565b5090565b5b8082111562000bff576000818162000bf5919062000c03565b5060010162000bdc565b5090565b50805462000c119062000d00565b6000825580601f1062000c25575062000c46565b601f01602090049060005260206000209081019062000c45919062000bbc565b5b50565b600062000c568262000cae565b62000c62818562000cb9565b935062000c7481856020860162000cca565b62000c7f8162000d65565b840191505092915050565b6000602082019050818103600083015262000ca6818462000c49565b905092915050565b600081519050919050565b600082825260208201905092915050565b60005b8381101562000cea57808201518184015260208101905062000ccd565b8381111562000cfa576000848401525b50505050565b6000600282049050600182168062000d1957607f821691505b6020821081141562000d305762000d2f62000d36565b5b50919050565b7f4e487b7100000000000000000000000000000000000000000000000000000000600052602260045260246000fd5b6000601f19601f8301169050919050565b613a148062000d866000396000f3fe608060405234801561001057600080fd5b50600436106101165760003560e01c806370a08231116100a2578063b88d4fde11610071578063b88d4fde14610305578063c575757a14610321578063c87b56dd14610351578063de9d132f14610381578063e985e9c51461038b57610116565b806370a082311461026b57806395d89b411461029b578063a22cb465146102b9578063b187301f146102d557610116565b8063095ea7b3116100e9578063095ea7b3146101b757806323b872dd146101d35780632de38d68146101ef57806342842e0e1461021f5780636352211e1461023b57610116565b806301ffc9a71461011b578063060475901461014b57806306fdde0314610169578063081812fc14610187575b600080fd5b6101356004803603810190610130919061255a565b6103bb565b604051610142919061326a565b60405180910390f35b61015361049d565b6040516101609190613505565b60405180910390f35b6101716104ae565b60405161017e9190613285565b60405180910390f35b6101a1600480360381019061019c91906125ac565b610540565b6040516101ae91906131da565b60405180910390f35b6101d160048036038101906101cc919061251e565b6105c5565b005b6101ed60048036038101906101e89190612418565b6106dd565b005b610209600480360381019061020491906125ac565b61073d565b6040516102169190613285565b60405180910390f35b61023960048036038101906102349190612418565b61085b565b005b610255600480360381019061025091906125ac565b61087b565b60405161026291906131da565b60405180910390f35b610285600480360381019061028091906123b3565b61092d565b6040516102929190613505565b60405180910390f35b6102a36109e5565b6040516102b09190613285565b60405180910390f35b6102d360048036038101906102ce91906124e2565b610a77565b005b6102ef60048036038101906102ea91906125ac565b610a8d565b6040516102fc9190613285565b60405180910390f35b61031f600480360381019061031a9190612467565b610bab565b005b61033b600480360381019061033691906125ac565b610c0d565b6040516103489190613285565b60405180910390f35b61036b600480360381019061036691906125ac565b610d2b565b6040516103789190613285565b60405180910390f35b610389610e7d565b005b6103a560048036038101906103a091906123dc565b6110c6565b6040516103b2919061326a565b60405180910390f35b60007f80ac58cd000000000000000000000000000000000000000000000000000000007bffffffffffffffffffffffffffffffffffffffffffffffffffffffff1916827bffffffffffffffffffffffffffffffffffffffffffffffffffffffff1916148061048657507f5b5e139f000000000000000000000000000000000000000000000000000000007bffffffffffffffffffffffffffffffffffffffffffffffffffffffff1916827bffffffffffffffffffffffffffffffffffffffffffffffffffffffff1916145b806104965750610495826111f3565b5b9050919050565b60006104a9600761125d565b905090565b6060600080546104bd906137a4565b80601f01602080910402602001604051908101604052809291908181526020018280546104e9906137a4565b80156105365780601f1061050b57610100808354040283529160200191610536565b820191906000526020600020905b81548152906001019060200180831161051957829003601f168201915b5050505050905090565b600061054b8261126b565b61058a576040517f08c379a000000000000000000000000000000000000000000000000000000000815260040161058190613445565b60405180910390fd5b6004600083815260200190815260200160002060009054906101000a900473ffffffffffffffffffffffffffffffffffffffff169050919050565b60006105d08261087b565b90508073ffffffffffffffffffffffffffffffffffffffff168373ffffffffffffffffffffffffffffffffffffffff161415610641576040517f08c379a0000000000000000000000000000000000000000000000000000000008152600401610638906134a5565b60405180910390fd5b8073ffffffffffffffffffffffffffffffffffffffff166106606112d7565b73ffffffffffffffffffffffffffffffffffffffff16148061068f575061068e816106896112d7565b6110c6565b5b6106ce576040517f08c379a00000000000000000000000000000000000000000000000000000000081526004016106c590613385565b60405180910390fd5b6106d883836112df565b505050565b6106ee6106e86112d7565b82611398565b61072d576040517f08c379a0000000000000000000000000000000000000000000000000000000008152600401610724906134e5565b60405180910390fd5b610738838383611476565b505050565b6060600061077161074d846116d2565b60405160200161075d9190613196565b60405160208183030381529060405261187f565b905060098054905081610784919061381f565b9050600981815481106107c0577f4e487b7100000000000000000000000000000000000000000000000000000000600052603260045260246000fd5b9060005260206000200180546107d5906137a4565b80601f0160208091040260200160405190810160405280929190818152602001828054610801906137a4565b801561084e5780601f106108235761010080835404028352916020019161084e565b820191906000526020600020905b81548152906001019060200180831161083157829003601f168201915b5050505050915050919050565b61087683838360405180602001604052806000815250610bab565b505050565b6000806002600084815260200190815260200160002060009054906101000a900473ffffffffffffffffffffffffffffffffffffffff169050600073ffffffffffffffffffffffffffffffffffffffff168173ffffffffffffffffffffffffffffffffffffffff161415610924576040517f08c379a000000000000000000000000000000000000000000000000000000000815260040161091b906133c5565b60405180910390fd5b80915050919050565b60008073ffffffffffffffffffffffffffffffffffffffff168273ffffffffffffffffffffffffffffffffffffffff16141561099e576040517f08c379a0000000000000000000000000000000000000000000000000000000008152600401610995906133a5565b60405180910390fd5b600360008373ffffffffffffffffffffffffffffffffffffffff1673ffffffffffffffffffffffffffffffffffffffff168152602001908152602001600020549050919050565b6060600180546109f4906137a4565b80601f0160208091040260200160405190810160405280929190818152602001828054610a20906137a4565b8015610a6d5780601f10610a4257610100808354040283529160200191610a6d565b820191906000526020600020905b815481529060010190602001808311610a5057829003601f168201915b5050505050905090565b610a89610a826112d7565b83836118b2565b5050565b60606000610ac1610a9d846116d2565b604051602001610aad919061312f565b60405160208183030381529060405261187f565b9050600a8054905081610ad4919061381f565b9050600a8181548110610b10577f4e487b7100000000000000000000000000000000000000000000000000000000600052603260045260246000fd5b906000526020600020018054610b25906137a4565b80601f0160208091040260200160405190810160405280929190818152602001828054610b51906137a4565b8015610b9e5780601f10610b7357610100808354040283529160200191610b9e565b820191906000526020600020905b815481529060010190602001808311610b8157829003601f168201915b5050505050915050919050565b610bbc610bb66112d7565b83611398565b610bfb576040517f08c379a0000000000000000000000000000000000000000000000000000000008152600401610bf2906134e5565b60405180910390fd5b610c0784848484611a1f565b50505050565b60606000610c41610c1d846116d2565b604051602001610c2d919061310d565b60405160208183030381529060405261187f565b9050600b8054905081610c54919061381f565b9050600b8181548110610c90577f4e487b7100000000000000000000000000000000000000000000000000000000600052603260045260246000fd5b906000526020600020018054610ca5906137a4565b80601f0160208091040260200160405190810160405280929190818152602001828054610cd1906137a4565b8015610d1e5780601f10610cf357610100808354040283529160200191610d1e565b820191906000526020600020905b815481529060010190602001808311610d0157829003601f168201915b5050505050915050919050565b6060610d368261126b565b610d75576040517f08c379a0000000000000000000000000000000000000000000000000000000008152600401610d6c90613425565b60405180910390fd5b6000600660008481526020019081526020016000208054610d95906137a4565b80601f0160208091040260200160405190810160405280929190818152602001828054610dc1906137a4565b8015610e0e5780601f10610de357610100808354040283529160200191610e0e565b820191906000526020600020905b815481529060010190602001808311610df157829003601f168201915b505050505090506000610e1f611a7b565b9050600081511415610e35578192505050610e78565b600082511115610e6a578082604051602001610e52929190613067565b60405160208183030381529060405292505050610e78565b610e7384611a92565b925050505b919050565b6000610e89600761125d565b9050600a8110610ece576040517f08c379a0000000000000000000000000000000000000000000000000000000008152600401610ec5906134c5565b60405180910390fd5b6000610ed98261073d565b90506000610ee683610a8d565b90506000610ef384610c0d565b90506000838383604051602001610f0c9392919061308b565b60405160208183030381529060405290506000600882604051602001610f339291906130bc565b60405160208183030381529060405290506000610f7883610f5384611b39565b604051602001610f64929190613151565b604051602081830303815290604052611b39565b9050600081604051602001610f8d91906131b8565b6040516020818303038152906040529050610fdc6040518060400160405280601581526020017f0a2d2d2d2d2d2d2d2d2d2d2d2d2d2d2d2d2d2d2d2d000000000000000000000081525061115a565b61100481604051602001610ff091906130eb565b60405160208183030381529060405261115a565b6110426040518060400160405280601581526020017f2d2d2d2d2d2d2d2d2d2d2d2d2d2d2d2d2d2d2d2d0a000000000000000000000081525061115a565b61104c3389611cf7565b6110568882611d15565b6110606007611d89565b61108360405180606001604052806025815260200161397a602591398933611d9f565b7febb98688741ffa4c7589bf325de30cf7becb63de567842e1ccdb6cb949fdc82c33896040516110b4929190613241565b60405180910390a15050505050505050565b6000600560008473ffffffffffffffffffffffffffffffffffffffff1673ffffffffffffffffffffffffffffffffffffffff16815260200190815260200160002060008373ffffffffffffffffffffffffffffffffffffffff1673ffffffffffffffffffffffffffffffffffffffff16815260200190815260200160002060009054906101000a900460ff16905092915050565b6111f08160405160240161116e9190613285565b6040516020818303038152906040527f41304fac000000000000000000000000000000000000000000000000000000007bffffffffffffffffffffffffffffffffffffffffffffffffffffffff19166020820180517bffffffffffffffffffffffffffffffffffffffffffffffffffffffff8381831617835250505050611e3e565b50565b60007f01ffc9a7000000000000000000000000000000000000000000000000000000007bffffffffffffffffffffffffffffffffffffffffffffffffffffffff1916827bffffffffffffffffffffffffffffffffffffffffffffffffffffffff1916149050919050565b600081600001549050919050565b60008073ffffffffffffffffffffffffffffffffffffffff166002600084815260200190815260200160002060009054906101000a900473ffffffffffffffffffffffffffffffffffffffff1673ffffffffffffffffffffffffffffffffffffffff1614159050919050565b600033905090565b816004600083815260200190815260200160002060006101000a81548173ffffffffffffffffffffffffffffffffffffffff021916908373ffffffffffffffffffffffffffffffffffffffff160217905550808273ffffffffffffffffffffffffffffffffffffffff166113528361087b565b73ffffffffffffffffffffffffffffffffffffffff167f8c5be1e5ebec7d5bd14f71427d1e84f3dd0314c0f7b2291e5b200ac8c7c3b92560405160405180910390a45050565b60006113a38261126b565b6113e2576040517f08c379a00000000000000000000000000000000000000000000000000000000081526004016113d990613365565b60405180910390fd5b60006113ed8361087b565b90508073ffffffffffffffffffffffffffffffffffffffff168473ffffffffffffffffffffffffffffffffffffffff16148061145c57508373ffffffffffffffffffffffffffffffffffffffff1661144484610540565b73ffffffffffffffffffffffffffffffffffffffff16145b8061146d575061146c81856110c6565b5b91505092915050565b8273ffffffffffffffffffffffffffffffffffffffff166114968261087b565b73ffffffffffffffffffffffffffffffffffffffff16146114ec576040517f08c379a00000000000000000000000000000000000000000000000000000000081526004016114e390613465565b60405180910390fd5b600073ffffffffffffffffffffffffffffffffffffffff168273ffffffffffffffffffffffffffffffffffffffff16141561155c576040517f08c379a000000000000000000000000000000000000000000000000000000000815260040161155390613325565b60405180910390fd5b611567838383611e67565b6115726000826112df565b6001600360008573ffffffffffffffffffffffffffffffffffffffff1673ffffffffffffffffffffffffffffffffffffffff16815260200190815260200160002060008282546115c291906136ba565b925050819055506001600360008473ffffffffffffffffffffffffffffffffffffffff1673ffffffffffffffffffffffffffffffffffffffff168152602001908152602001600020600082825461161991906135d9565b92505081905550816002600083815260200190815260200160002060006101000a81548173ffffffffffffffffffffffffffffffffffffffff021916908373ffffffffffffffffffffffffffffffffffffffff160217905550808273ffffffffffffffffffffffffffffffffffffffff168473ffffffffffffffffffffffffffffffffffffffff167fddf252ad1be2c89b69c2b068fc378daa952ba7f163c4a11628f55a4df523b3ef60405160405180910390a4505050565b6060600082141561171a576040518060400160405280600181526020017f3000000000000000000000000000000000000000000000000000000000000000815250905061187a565b600082905060005b6000821461174c578080611735906137d6565b915050600a82611745919061362f565b9150611722565b60008167ffffffffffffffff81111561178e577f4e487b7100000000000000000000000000000000000000000000000000000000600052604160045260246000fd5b6040519080825280601f01601f1916602001820160405280156117c05781602001600182028036833780820191505090505b5090505b60008514611873576001826117d991906136ba565b9150600a856117e8919061381f565b60306117f491906135d9565b60f81b818381518110611830577f4e487b7100000000000000000000000000000000000000000000000000000000600052603260045260246000fd5b60200101907effffffffffffffffffffffffffffffffffffffffffffffffffffffffffffff1916908160001a905350600a8561186c919061362f565b94506117c4565b8093505050505b919050565b6000816040516020016118929190613050565b6040516020818303038152906040528051906020012060001c9050919050565b8173ffffffffffffffffffffffffffffffffffffffff168373ffffffffffffffffffffffffffffffffffffffff161415611921576040517f08c379a000000000000000000000000000000000000000000000000000000000815260040161191890613345565b60405180910390fd5b80600560008573ffffffffffffffffffffffffffffffffffffffff1673ffffffffffffffffffffffffffffffffffffffff16815260200190815260200160002060008473ffffffffffffffffffffffffffffffffffffffff1673ffffffffffffffffffffffffffffffffffffffff16815260200190815260200160002060006101000a81548160ff0219169083151502179055508173ffffffffffffffffffffffffffffffffffffffff168373ffffffffffffffffffffffffffffffffffffffff167f17307eab39ab6107e8899845ad3d59bd9653f200f220920489ca2b5937696c3183604051611a12919061326a565b60405180910390a3505050565b611a2a848484611476565b611a3684848484611e6c565b611a75576040517f08c379a0000000000000000000000000000000000000000000000000000000008152600401611a6c906132e5565b60405180910390fd5b50505050565b606060405180602001604052806000815250905090565b6060611a9d8261126b565b611adc576040517f08c379a0000000000000000000000000000000000000000000000000000000008152600401611ad390613485565b60405180910390fd5b6000611ae6611a7b565b90506000815111611b065760405180602001604052806000815250611b31565b80611b10846116d2565b604051602001611b21929190613067565b6040516020818303038152906040525b915050919050565b60606000825190506000811415611b625760405180602001604052806000815250915050611cf2565b60006003600283611b7391906135d9565b611b7d919061362f565b6004611b899190613660565b90506000602082611b9a91906135d9565b67ffffffffffffffff811115611bd9577f4e487b7100000000000000000000000000000000000000000000000000000000600052604160045260246000fd5b6040519080825280601f01601f191660200182016040528015611c0b5781602001600182028036833780820191505090505b509050600060405180606001604052806040815260200161399f604091399050600181016020830160005b86811015611caf5760038101905062ffffff818a015116603f8160121c168401518060081b905060ff603f83600c1c1686015116810190508060081b905060ff603f8360061c1686015116810190508060081b905060ff603f831686015116810190508060e01b90508084526004840193505050611c36565b506003860660018114611cc95760028114611cd957611ce4565b613d3d60f01b6002830352611ce4565b603d60f81b60018303525b508484525050819450505050505b919050565b611d11828260405180602001604052806000815250612003565b5050565b611d1e8261126b565b611d5d576040517f08c379a0000000000000000000000000000000000000000000000000000000008152600401611d54906133e5565b60405180910390fd5b80600660008481526020019081526020016000209080519060200190611d8492919061223f565b505050565b6001816000016000828254019250508190555050565b611e39838383604051602401611db7939291906132a7565b6040516020818303038152906040527fe3849f79000000000000000000000000000000000000000000000000000000007bffffffffffffffffffffffffffffffffffffffffffffffffffffffff19166020820180517bffffffffffffffffffffffffffffffffffffffffffffffffffffffff8381831617835250505050611e3e565b505050565b60008151905060006a636f6e736f6c652e6c6f679050602083016000808483855afa5050505050565b505050565b6000611e8d8473ffffffffffffffffffffffffffffffffffffffff1661205e565b15611ff6578373ffffffffffffffffffffffffffffffffffffffff1663150b7a02611eb66112d7565b8786866040518563ffffffff1660e01b8152600401611ed894939291906131f5565b602060405180830381600087803b158015611ef257600080fd5b505af1925050508015611f2357506040513d601f19601f82011682018060405250810190611f209190612583565b60015b611fa6573d8060008114611f53576040519150601f19603f3d011682016040523d82523d6000602084013e611f58565b606091505b50600081511415611f9e576040517f08c379a0000000000000000000000000000000000000000000000000000000008152600401611f95906132e5565b60405180910390fd5b805181602001fd5b63150b7a0260e01b7bffffffffffffffffffffffffffffffffffffffffffffffffffffffff1916817bffffffffffffffffffffffffffffffffffffffffffffffffffffffff191614915050611ffb565b600190505b949350505050565b61200d8383612071565b61201a6000848484611e6c565b612059576040517f08c379a0000000000000000000000000000000000000000000000000000000008152600401612050906132e5565b60405180910390fd5b505050565b600080823b905060008111915050919050565b600073ffffffffffffffffffffffffffffffffffffffff168273ffffffffffffffffffffffffffffffffffffffff1614156120e1576040517f08c379a00000000000000000000000000000000000000000000000000000000081526004016120d890613405565b60405180910390fd5b6120ea8161126b565b1561212a576040517f08c379a000000000000000000000000000000000000000000000000000000000815260040161212190613305565b60405180910390fd5b61213660008383611e67565b6001600360008473ffffffffffffffffffffffffffffffffffffffff1673ffffffffffffffffffffffffffffffffffffffff168152602001908152602001600020600082825461218691906135d9565b92505081905550816002600083815260200190815260200160002060006101000a81548173ffffffffffffffffffffffffffffffffffffffff021916908373ffffffffffffffffffffffffffffffffffffffff160217905550808273ffffffffffffffffffffffffffffffffffffffff16600073ffffffffffffffffffffffffffffffffffffffff167fddf252ad1be2c89b69c2b068fc378daa952ba7f163c4a11628f55a4df523b3ef60405160405180910390a45050565b82805461224b906137a4565b90600052602060002090601f01602090048101928261226d57600085556122b4565b82601f1061228657805160ff19168380011785556122b4565b828001600101855582156122b4579182015b828111156122b3578251825591602001919060010190612298565b5b5090506122c191906122c5565b5090565b5b808211156122de5760008160009055506001016122c6565b5090565b60006122f56122f084613551565b613520565b90508281526020810184848401111561230d57600080fd5b612318848285613762565b509392505050565b60008135905061232f8161391d565b92915050565b60008135905061234481613934565b92915050565b6000813590506123598161394b565b92915050565b60008151905061236e8161394b565b92915050565b600082601f83011261238557600080fd5b81356123958482602086016122e2565b91505092915050565b6000813590506123ad81613962565b92915050565b6000602082840312156123c557600080fd5b60006123d384828501612320565b91505092915050565b600080604083850312156123ef57600080fd5b60006123fd85828601612320565b925050602061240e85828601612320565b9150509250929050565b60008060006060848603121561242d57600080fd5b600061243b86828701612320565b935050602061244c86828701612320565b925050604061245d8682870161239e565b9150509250925092565b6000806000806080858703121561247d57600080fd5b600061248b87828801612320565b945050602061249c87828801612320565b93505060406124ad8782880161239e565b925050606085013567ffffffffffffffff8111156124ca57600080fd5b6124d687828801612374565b91505092959194509250565b600080604083850312156124f557600080fd5b600061250385828601612320565b925050602061251485828601612335565b9150509250929050565b6000806040838503121561253157600080fd5b600061253f85828601612320565b92505060206125508582860161239e565b9150509250929050565b60006020828403121561256c57600080fd5b600061257a8482850161234a565b91505092915050565b60006020828403121561259557600080fd5b60006125a38482850161235f565b91505092915050565b6000602082840312156125be57600080fd5b60006125cc8482850161239e565b91505092915050565b6125de816136ee565b82525050565b6125ed81613700565b82525050565b60006125fe82613596565b61260881856135ac565b9350612618818560208601613771565b6126218161390c565b840191505092915050565b6000612637826135a1565b61264181856135bd565b9350612651818560208601613771565b61265a8161390c565b840191505092915050565b6000612670826135a1565b61267a81856135ce565b935061268a818560208601613771565b80840191505092915050565b600081546126a3816137a4565b6126ad81866135ce565b945060018216600081146126c857600181146126d95761270c565b60ff1983168652818601935061270c565b6126e285613581565b60005b83811015612704578154818901526001820191506020810190506126e5565b838801955050505b50505092915050565b60006127226025836135ce565b91507f68747470733a2f2f6e6674707265766965772e30786465762e636f6465732f3f60008301527f636f64653d0000000000000000000000000000000000000000000000000000006020830152602582019050919050565b60006127886032836135bd565b91507f4552433732313a207472616e7366657220746f206e6f6e20455243373231526560008301527f63656976657220696d706c656d656e74657200000000000000000000000000006020830152604082019050919050565b60006127ee601c836135bd565b91507f4552433732313a20746f6b656e20616c7265616479206d696e746564000000006000830152602082019050919050565b600061282e600a836135ce565b91507f54484952445f574f5244000000000000000000000000000000000000000000006000830152600a82019050919050565b600061286e6024836135bd565b91507f4552433732313a207472616e7366657220746f20746865207a65726f2061646460008301527f72657373000000000000000000000000000000000000000000000000000000006020830152604082019050919050565b60006128d46019836135bd565b91507f4552433732313a20617070726f766520746f2063616c6c6572000000000000006000830152602082019050919050565b60006129146063836135ce565b91507f222c20226465736372697074696f6e223a20224120686967686c79206163636c60008301527f61696d656420636f6c6c656374696f6e206f6620737175617265732e222c202260208301527f696d616765223a2022646174613a696d6167652f7376672b786d6c3b6261736560408301527f36342c00000000000000000000000000000000000000000000000000000000006060830152606382019050919050565b60006129c6600b836135ce565b91507f5345434f4e445f574f52440000000000000000000000000000000000000000006000830152600b82019050919050565b6000612a06602c836135bd565b91507f4552433732313a206f70657261746f7220717565727920666f72206e6f6e657860008301527f697374656e7420746f6b656e00000000000000000000000000000000000000006020830152604082019050919050565b6000612a6c600d836135ce565b91507f3c2f746578743e3c2f7376673e000000000000000000000000000000000000006000830152600d82019050919050565b6000612aac6038836135bd565b91507f4552433732313a20617070726f76652063616c6c6572206973206e6f74206f7760008301527f6e6572206e6f7220617070726f76656420666f7220616c6c00000000000000006020830152604082019050919050565b6000612b12602a836135bd565b91507f4552433732313a2062616c616e636520717565727920666f7220746865207a6560008301527f726f2061646472657373000000000000000000000000000000000000000000006020830152604082019050919050565b6000612b786029836135bd565b91507f4552433732313a206f776e657220717565727920666f72206e6f6e657869737460008301527f656e7420746f6b656e00000000000000000000000000000000000000000000006020830152604082019050919050565b6000612bde602e836135bd565b91507f45524337323155524953746f726167653a2055524920736574206f66206e6f6e60008301527f6578697374656e7420746f6b656e0000000000000000000000000000000000006020830152604082019050919050565b6000612c446002836135ce565b91507f227d0000000000000000000000000000000000000000000000000000000000006000830152600282019050919050565b6000612c846020836135bd565b91507f4552433732313a206d696e7420746f20746865207a65726f20616464726573736000830152602082019050919050565b6000612cc46031836135bd565b91507f45524337323155524953746f726167653a2055524920717565727920666f722060008301527f6e6f6e6578697374656e7420746f6b656e0000000000000000000000000000006020830152604082019050919050565b6000612d2a602c836135bd565b91507f4552433732313a20617070726f76656420717565727920666f72206e6f6e657860008301527f697374656e7420746f6b656e00000000000000000000000000000000000000006020830152604082019050919050565b6000612d906029836135bd565b91507f4552433732313a207472616e73666572206f6620746f6b656e2074686174206960008301527f73206e6f74206f776e00000000000000000000000000000000000000000000006020830152604082019050919050565b6000612df6602f836135bd565b91507f4552433732314d657461646174613a2055524920717565727920666f72206e6f60008301527f6e6578697374656e7420746f6b656e00000000000000000000000000000000006020830152604082019050919050565b6000612e5c600a836135ce565b91507f7b226e616d65223a2022000000000000000000000000000000000000000000006000830152600a82019050919050565b6000612e9c6021836135bd565b91507f4552433732313a20617070726f76616c20746f2063757272656e74206f776e6560008301527f72000000000000000000000000000000000000000000000000000000000000006020830152604082019050919050565b6000612f02600a836135ce565b91507f46495253545f574f5244000000000000000000000000000000000000000000006000830152600a82019050919050565b6000612f42601d836135ce565b91507f646174613a6170706c69636174696f6e2f6a736f6e3b6261736536342c0000006000830152601d82019050919050565b6000612f826027836135bd565b91507f546865206d6178206e756d626572206f66204e4654732068617665206265656e60008301527f206d696e746564000000000000000000000000000000000000000000000000006020830152604082019050919050565b6000612fe86031836135bd565b91507f4552433732313a207472616e736665722063616c6c6572206973206e6f74206f60008301527f776e6572206e6f7220617070726f7665640000000000000000000000000000006020830152604082019050919050565b61304a81613758565b82525050565b600061305c8284612665565b915081905092915050565b60006130738285612665565b915061307f8284612665565b91508190509392505050565b60006130978286612665565b91506130a38285612665565b91506130af8284612665565b9150819050949350505050565b60006130c88285612696565b91506130d48284612665565b91506130df82612a5f565b91508190509392505050565b60006130f682612715565b91506131028284612665565b915081905092915050565b600061311882612821565b91506131248284612665565b915081905092915050565b600061313a826129b9565b91506131468284612665565b915081905092915050565b600061315c82612e4f565b91506131688285612665565b915061317382612907565b915061317f8284612665565b915061318a82612c37565b91508190509392505050565b60006131a182612ef5565b91506131ad8284612665565b915081905092915050565b60006131c382612f35565b91506131cf8284612665565b915081905092915050565b60006020820190506131ef60008301846125d5565b92915050565b600060808201905061320a60008301876125d5565b61321760208301866125d5565b6132246040830185613041565b818103606083015261323681846125f3565b905095945050505050565b600060408201905061325660008301856125d5565b6132636020830184613041565b9392505050565b600060208201905061327f60008301846125e4565b92915050565b6000602082019050818103600083015261329f818461262c565b905092915050565b600060608201905081810360008301526132c1818661262c565b90506132d06020830185613041565b6132dd60408301846125d5565b949350505050565b600060208201905081810360008301526132fe8161277b565b9050919050565b6000602082019050818103600083015261331e816127e1565b9050919050565b6000602082019050818103600083015261333e81612861565b9050919050565b6000602082019050818103600083015261335e816128c7565b9050919050565b6000602082019050818103600083015261337e816129f9565b9050919050565b6000602082019050818103600083015261339e81612a9f565b9050919050565b600060208201905081810360008301526133be81612b05565b9050919050565b600060208201905081810360008301526133de81612b6b565b9050919050565b600060208201905081810360008301526133fe81612bd1565b9050919050565b6000602082019050818103600083015261341e81612c77565b9050919050565b6000602082019050818103600083015261343e81612cb7565b9050919050565b6000602082019050818103600083015261345e81612d1d565b9050919050565b6000602082019050818103600083015261347e81612d83565b9050919050565b6000602082019050818103600083015261349e81612de9565b9050919050565b600060208201905081810360008301526134be81612e8f565b9050919050565b600060208201905081810360008301526134de81612f75565b9050919050565b600060208201905081810360008301526134fe81612fdb565b9050919050565b600060208201905061351a6000830184613041565b92915050565b6000604051905081810181811067ffffffffffffffff82111715613547576135466138dd565b5b8060405250919050565b600067ffffffffffffffff82111561356c5761356b6138dd565b5b601f19601f8301169050602081019050919050565b60008190508160005260206000209050919050565b600081519050919050565b600081519050919050565b600082825260208201905092915050565b600082825260208201905092915050565b600081905092915050565b60006135e482613758565b91506135ef83613758565b9250827fffffffffffffffffffffffffffffffffffffffffffffffffffffffffffffffff0382111561362457613623613850565b5b828201905092915050565b600061363a82613758565b915061364583613758565b9250826136555761365461387f565b5b828204905092915050565b600061366b82613758565b915061367683613758565b9250817fffffffffffffffffffffffffffffffffffffffffffffffffffffffffffffffff04831182151516156136af576136ae613850565b5b828202905092915050565b60006136c582613758565b91506136d083613758565b9250828210156136e3576136e2613850565b5b828203905092915050565b60006136f982613738565b9050919050565b60008115159050919050565b60007fffffffff0000000000000000000000000000000000000000000000000000000082169050919050565b600073ffffffffffffffffffffffffffffffffffffffff82169050919050565b6000819050919050565b82818337600083830152505050565b60005b8381101561378f578082015181840152602081019050613774565b8381111561379e576000848401525b50505050565b600060028204905060018216806137bc57607f821691505b602082108114156137d0576137cf6138ae565b5b50919050565b60006137e182613758565b91507fffffffffffffffffffffffffffffffffffffffffffffffffffffffffffffffff82141561381457613813613850565b5b600182019050919050565b600061382a82613758565b915061383583613758565b9250826138455761384461387f565b5b828206905092915050565b7f4e487b7100000000000000000000000000000000000000000000000000000000600052601160045260246000fd5b7f4e487b7100000000000000000000000000000000000000000000000000000000600052601260045260246000fd5b7f4e487b7100000000000000000000000000000000000000000000000000000000600052602260045260246000fd5b7f4e487b7100000000000000000000000000000000000000000000000000000000600052604160045260246000fd5b6000601f19601f8301169050919050565b613926816136ee565b811461393157600080fd5b50565b61393d81613700565b811461394857600080fd5b50565b6139548161370c565b811461395f57600080fd5b50565b61396b81613758565b811461397657600080fd5b5056fe416e204e465420772f20494420257320686173206265656e206d696e74656420746f2025734142434445464748494a4b4c4d4e4f505152535455565758595a6162636465666768696a6b6c6d6e6f707172737475767778797a303132333435363738392b2fa2646970667358221220091a54ee6233e14337475efdcc153d05a9c600f334e1716a06a69f34e5a65de664736f6c634300080000333c73766720786d6c6e733d27687474703a2f2f7777772e77332e6f72672f323030302f73766727207072657365727665417370656374526174696f3d27784d696e594d696e206d656574272076696577426f783d273020302033353020333530273e3c7374796c653e2e62617365207b2066696c6c3a2077686974653b20666f6e742d66616d696c793a2073657269663b20666f6e742d73697a653a20323470783b207d3c2f7374796c653e3c726563742077696474683d273130302527206865696768743d2731303025272066696c6c3d27626c61636b27202f3e3c7465787420783d273530252720793d273530252720636c6173733d27626173652720646f6d696e616e742d626173656c696e653d276d6964646c652720746578742d616e63686f723d276d6964646c65273e",
  "linkReferences": {},
  "deployedLinkReferences": {}
}